S019000054586D6963726F636F6E74726F6C6C65722E7372656301
S11300000C943C000C9459000C9459000C94590025
S11300100C9459000C9459000C9459000C945900F8
S11300200C9459000C9459000C9459000C945900E8
S11300300C9459000C9459000C9459000C945900D8
S11300400C9459000C9459000C9459000C94910090
S11300500C9459000C94EF000C9459000C94590022
S11300600C9459000C9459000D01120117011C0144
S1130070210126012B01300111241FBECFEFD8E04E
S1130080DEBFCDBF11E0A0E0B1E0E2EBF2E002C0E0
S113009005900D92A830B107D9F721E0A8E0B1E0AE
S11300A001C01D92A231B207E1F70E94E7000C944F
S11300B057010C940000CF93DF9380910801909135
S11300C00901892BF9F49091000180910A01981794
S11300D071F004C091918D91981721F088E280937A
S11300E0C10010C01882E217F307A1F70BC01092E9
S11300F0C100E1E0F1E0ABE0B1E028E031E0C1ECC7
S1130100D0E0E8CFDF91CF9108951092C50080E14F
S11301108093C40088E28093C10086E28093C20089
S113012008951F920F920FB60F9211242F938F935D
S11301309F93AF93BF93EF93FF93E0910801F091E6
S11301400901E65FFE4F80818093C600809108011B
S113015090910901FC01E050FF4FDC01A65FBE4F06
S11301602C9120838730910529F410920901109273
S1130170080105C001969093090180930801FF913D
S1130180EF91BF91AF919F918F912F910F900FBEDF
S11301900F901F901895ECE7F0E09081907E8F719E
S11301A0892B80830895EAE7F0E08081806480836E
S11301B00895ECE7F0E08081806680838FE8809387
S11301C07A008FE380937E000E94D30008950E94FA
S11301D085000E94D90078940E945B00FDCF1F9295
S11301E00F920FB60F9211242F933F934F935F9367
S11301F06F937F938F939F93AF93BF93EF93FF93EB
S113020080917C008F70482F50E04830510568F58C
S1130210FA01EC5CFF4F0C9451019091790090939A
S11302200A0129C09091790090930B0124C0909108
S1130230790090930C011FC09091790090930D0167
S11302401AC09091790090930E0115C09091790095
S113025090930F0110C090917900909310010BC0FE
S1130260809179008093110102C0873021F480E0ED
S11302700E94CB0003C08F5F0E94CB000E94D3007A
S1130280FF91EF91BF91AF919F918F917F916F916A
S11302905F914F913F912F910F900FBE0F901F9040
S11302A01895EE0FFF1F0590F491E02D0994F89432
S10502B0FFCF7A
S10B02B2FFFFFFFFFFFFFFFF48
S9030000FC
