S019000052586D6963726F636F6E74726F6C6C65722E7372656303
S11300000C9434000C9451000C9451000C94510045
S11300100C9451000C9451000C9451000C94510018
S11300200C9451000C9451000C9451000C94C30096
S11300300C9451000C9451000C9451000C945100F8
S11300400C9451000C9451000C9428010C94510010
S11300500C9451000C9451000C9451000C945100D8
S11300600C9451000C94510011241FBECFEFD8E022
S1130070DEBFCDBF11E0A0E0B1E0ECEBF6E002C0E2
S113008005900D92AA30B107D9F721E0AAE0B1E0BA
S113009001C01D92AF31B207E1F70E94B3000C9486
S11300A05C030C9400001092C50080E18093C400AE
S11300B080E98093C10086E28093C200089584B1F0
S11300C08FEF84B98091840090918500805C994F72
S11300D0909389008093880081E080938100EFE60B
S11300E0F0E08081826080830895CF93DF93F89459
S11300F0C82FD0E070E080E090E00E94630220E02E
S113010030E04AE756E40E94EF0220E030E04FE797
S113011053E40E94C00120E030E04AE756E40E9424
S113012054010E943202C15FDE4F68837894DF91EC
S1130130CF9108950F931F93CF9307E111E0C0E08F
S1130140F80161918F018C2F0E9475008FE99FE067
S11301500197F1F700C00000CF5FC83089F7CF9155
S11301601F910F910895E7E1F1E08FE191E0119281
S1130170E817F907E1F70E9453000E945F007894A2
S11301800E949A00FDCF1F920F920FB60F92112476
S11301902F933F934F935F938F939F93EF93FF938B
S11301A02091880030918900E0910C01F0E0EE5F2D
S11301B0FE4F80814091000150910101452BB9F01F
S11301C095B1892B85B9E0910C01F0E0E15FFE4F18
S11301D08081A901480F511D5093890040938800E4
S11301E0205C334630930B0120930A0116C095B16D
S11301F08095892385B980910C018F5F883019F02F
S113020080930C0102C010920C0180910A0190911C
S11302100B01909389008093880081E090E0209105
S1130220000130910101232B11F080E090E09093C4
S1130230010180930001FF91EF919F918F915F9154
S11302404F913F912F910F900FBE0F901F901895D3
S11302501F920F920FB60F9211242F938F939F9397
S1130260EF93FF9380910D0190910E012091C600B0
S1130270FC01E95EFE4F2083873091052CF010923B
S11302800E0110920D0105C0019690930E0180930A
S11302900D01FF91EF919F918F912F910F900FBEC0
S11302A00F901F9018955058BB27AA270E946B01E6
S11302B00C94B5020E94A70238F00E94AE0220F00E
S11302C039F49F3F19F426F40C94A4020EF4E0953B
S11302D0E7FB0C949E02E92F0E94C60258F3BA175A
S11302E0620773078407950720F079F4A6F50C9448
S11302F0E8020EF4E0950B2EBA2FA02D0B01B901E4
S113030090010C01CA01A0011124FF27591B99F087
S1130310593F50F4503E68F11A16F040A22F232F93
S1130320342F4427585FF3CF469537952795A795E3
S1130330F0405395C9F77EF41F16BA0B620B730B8A
S1130340840BBAF09150A1F0FF0FBB1F661F771FFB
S1130350881FC2F70EC0BA0F621F731F841F48F4B0
S1130360879577956795B795F7959E3F08F0B0CF39
S11303709395880F08F09927EE0F97958795089520
S11303800E94D4010C94B5020E94AE0258F00E945F
S1130390A70240F029F45F3F29F00C949E0251110A
S11303A00C94E9020C94A4020E94C60268F39923F7
S11303B0B1F3552391F3951B550BBB27AA2762175D
S11303C07307840738F09F5F5F4F220F331F441F6A
S11303D0AA1FA9F335D00E2E3AF0E0E832D091509E
S11303E05040E695001CCAF72BD0FE2F29D0660F8B
S11303F0771F881FBB1F261737074807AB07B0E8CE
S113040009F0BB0B802DBF01FF2793585F4F3AF0D3
S11304109E3F510578F00C949E020C94E9025F3FD4
S1130420E4F3983ED4F3869577956795B795F79559
S11304309F5FC9F7880F911D9695879597F9089541
S1130440E1E0660F771F881FBB1F621773078407DD
S1130450BA0720F0621B730B840BBA0BEE1F88F7EC
S1130460E09508950E94CE0288F09F5798F0B92F26
S11304709927B751B0F0E1F0660F771F881F991FD5
S11304801AF0BA95C9F714C0B13091F00E94E8028D
S1130490B1E008950C94E802672F782F8827B85F9D
S11304A039F0B93FCCF3869577956795B395D9F72D
S11304B03EF490958095709561957F4F8F4F9F4F37
S11304C00895E89409C097FB3EF490958095709543
S11304D061957F4F8F4F9F4F9923A9F0F92F96E98C
S11304E0BB279395F695879577956795B795F11101
S11304F0F8CFFAF4BB0F11F460FF1BC06F5F7F4F9E
S11305008F4F9F4F16C0882311F096E911C07723AF
S113051021F09EE8872F762F05C0662371F096E8B8
S1130520862F70E060E02AF09A95660F771F881F87
S1130530DAF7880F9695879597F9089597F99F6745
S113054080E870E060E008959FEF80EC0895002457
S11305500A941616170618060906089500240A9424
S113056012161306140605060895092E0394000CAA
S113057011F4882352F0BB0F40F4BF2B11F460FF39
S113058004C06F5F7F4F8F4F9F4F089557FD905862
S1130590440F551F59F05F3F71F04795880F97FB43
S11305A0991F61F09F3F79F08795089512161306FD
S11305B01406551FF2CF4695F1DF08C0161617062C
S11305C01806991FF1CF8695710561050894089561
S11305D0E894BB2766277727CB0197F908950E94F3
S11305E002030C94B5020E94A70238F00E94AE02E6
S11305F020F0952311F00C949E020C94A402112473
S11306000C94E9020E94C60270F3959FC1F3950F02
S113061050E0551F629FF001729FBB27F00DB11D82
S1130620639FAA27F00DB11DAA1F649F6627B00D12
S1130630A11D661F829F2227B00DA11D621F739FFB
S1130640B00DA11D621F839FA00D611D221F749F09
S11306503327A00D611D231F849F600D211D822F50
S1130660762F6A2F11249F5750409AF0F1F0882377
S11306704AF0EE0FFF1FBB1F661F771F881F9150A4
S11306805040A9F79E3F510580F00C949E020C94B3
S1130690E9025F3FE4F3983ED4F386957795679536
S11306A0B795F795E7959F5FC1F7FE2B880F911DCE
S10F06B09695879597F90895F894FFCF6C
S10D06BC0100010204081020408030
S9030000FC
